{
  "contractName": "Campaign",
  "abi": [
    {
      "constant": true,
      "inputs": [
        {
          "name": "",
          "type": "address"
        }
      ],
      "name": "approvers",
      "outputs": [
        {
          "name": "",
          "type": "bool"
        }
      ],
      "payable": false,
      "stateMutability": "view",
      "type": "function"
    },
    {
      "constant": true,
      "inputs": [
        {
          "name": "",
          "type": "address"
        }
      ],
      "name": "donoramount",
      "outputs": [
        {
          "name": "",
          "type": "uint256"
        }
      ],
      "payable": false,
      "stateMutability": "view",
      "type": "function"
    },
    {
      "constant": true,
      "inputs": [],
      "name": "manager",
      "outputs": [
        {
          "name": "",
          "type": "address"
        }
      ],
      "payable": false,
      "stateMutability": "view",
      "type": "function"
    },
    {
      "constant": true,
      "inputs": [
        {
          "name": "",
          "type": "uint256"
        }
      ],
      "name": "requests",
      "outputs": [
        {
          "name": "description",
          "type": "string"
        },
        {
          "name": "value",
          "type": "uint256"
        },
        {
          "name": "recipient",
          "type": "address"
        },
        {
          "name": "complete",
          "type": "bool"
        },
        {
          "name": "approvalCount",
          "type": "uint256"
        }
      ],
      "payable": false,
      "stateMutability": "view",
      "type": "function"
    },
    {
      "constant": true,
      "inputs": [],
      "name": "approversCount",
      "outputs": [
        {
          "name": "",
          "type": "uint256"
        }
      ],
      "payable": false,
      "stateMutability": "view",
      "type": "function"
    },
    {
      "constant": true,
      "inputs": [],
      "name": "minimumContribution",
      "outputs": [
        {
          "name": "",
          "type": "uint256"
        }
      ],
      "payable": false,
      "stateMutability": "view",
      "type": "function"
    },
    {
      "constant": true,
      "inputs": [
        {
          "name": "",
          "type": "uint256"
        }
      ],
      "name": "donators",
      "outputs": [
        {
          "name": "name",
          "type": "string"
        },
        {
          "name": "donoraddress",
          "type": "address"
        }
      ],
      "payable": false,
      "stateMutability": "view",
      "type": "function"
    },
    {
      "inputs": [
        {
          "name": "a",
          "type": "uint256"
        }
      ],
      "payable": false,
      "stateMutability": "nonpayable",
      "type": "constructor"
    },
    {
      "constant": false,
      "inputs": [
        {
          "name": "name",
          "type": "string"
        }
      ],
      "name": "contribute",
      "outputs": [],
      "payable": true,
      "stateMutability": "payable",
      "type": "function"
    },
    {
      "constant": false,
      "inputs": [
        {
          "name": "description",
          "type": "string"
        },
        {
          "name": "value",
          "type": "uint256"
        },
        {
          "name": "recipient",
          "type": "address"
        }
      ],
      "name": "createRequest",
      "outputs": [],
      "payable": false,
      "stateMutability": "nonpayable",
      "type": "function"
    },
    {
      "constant": false,
      "inputs": [
        {
          "name": "index",
          "type": "uint256"
        }
      ],
      "name": "approveRequest",
      "outputs": [],
      "payable": false,
      "stateMutability": "nonpayable",
      "type": "function"
    },
    {
      "constant": false,
      "inputs": [
        {
          "name": "index",
          "type": "uint256"
        }
      ],
      "name": "finalizeRequest",
      "outputs": [],
      "payable": false,
      "stateMutability": "nonpayable",
      "type": "function"
    },
    {
      "constant": true,
      "inputs": [],
      "name": "getRequestsCount",
      "outputs": [
        {
          "name": "",
          "type": "uint256"
        }
      ],
      "payable": false,
      "stateMutability": "view",
      "type": "function"
    },
    {
      "constant": false,
      "inputs": [
        {
          "name": "name",
          "type": "string"
        }
      ],
      "name": "contribute1",
      "outputs": [],
      "payable": true,
      "stateMutability": "payable",
      "type": "function"
    }
  ],
  "bytecode": "0x608060405234801561001057600080fd5b5060405160208061131f8339810180604052602081101561003057600080fd5b810190808051906020019092919050505033600260006101000a81548173ffffffffffffffffffffffffffffffffffffffff021916908373ffffffffffffffffffffffffffffffffffffffff1602179055508060038190555050611286806100996000396000f3fe6080604052600436106100bf576000357c01000000000000000000000000000000000000000000000000000000009004806303441006146100c45780630a144391146100ff5780631006d6af146101685780633410452a14610223578063443765611461024e578063481c6a75146102b35780635c43217b1461030a57806381d12c58146103c557806382fde093146104c55780638a9cfd55146104f0578063937e09b1146105e2578063ac62f5661461060d578063d7d1bbdb146106f4575b600080fd5b3480156100d057600080fd5b506100fd600480360360208110156100e757600080fd5b810190808035906020019092919050505061072f565b005b34801561010b57600080fd5b5061014e6004803603602081101561012257600080fd5b81019080803573ffffffffffffffffffffffffffffffffffffffff16906020019092919050505061087a565b604051808215151515815260200191505060405180910390f35b6102216004803603602081101561017e57600080fd5b810190808035906020019064010000000081111561019b57600080fd5b8201836020820111156101ad57600080fd5b803590602001918460018302840111640100000000831117156101cf57600080fd5b91908080601f016020809104026020016040519081016040528093929190818152602001838380828437600081840152601f19601f82011690508083019250505050505050919291929050505061089a565b005b34801561022f57600080fd5b50610238610a67565b6040518082815260200191505060405180910390f35b34801561025a57600080fd5b5061029d6004803603602081101561027157600080fd5b81019080803573ffffffffffffffffffffffffffffffffffffffff169060200190929190505050610a74565b6040518082815260200191505060405180910390f35b3480156102bf57600080fd5b506102c8610a8c565b604051808273ffffffffffffffffffffffffffffffffffffffff1673ffffffffffffffffffffffffffffffffffffffff16815260200191505060405180910390f35b6103c36004803603602081101561032057600080fd5b810190808035906020019064010000000081111561033d57600080fd5b82018360208201111561034f57600080fd5b8035906020019184600183028401116401000000008311171561037157600080fd5b91908080601f016020809104026020016040519081016040528093929190818152602001838380828437600081840152601f19601f820116905080830192505050505050509192919290505050610ab2565b005b3480156103d157600080fd5b506103fe600480360360208110156103e857600080fd5b8101908080359060200190929190505050610c7f565b60405180806020018681526020018573ffffffffffffffffffffffffffffffffffffffff1673ffffffffffffffffffffffffffffffffffffffff16815260200184151515158152602001838152602001828103825287818151815260200191508051906020019080838360005b8381101561048657808201518184015260208101905061046b565b50505050905090810190601f1680156104b35780820380516001836020036101000a031916815260200191505b50965050505050505060405180910390f35b3480156104d157600080fd5b506104da610d89565b6040518082815260200191505060405180910390f35b3480156104fc57600080fd5b506105e06004803603606081101561051357600080fd5b810190808035906020019064010000000081111561053057600080fd5b82018360208201111561054257600080fd5b8035906020019184600183028401116401000000008311171561056457600080fd5b91908080601f016020809104026020016040519081016040528093929190818152602001838380828437600081840152601f19601f82011690508083019250505050505050919291929080359060200190929190803573ffffffffffffffffffffffffffffffffffffffff169060200190929190505050610d8f565b005b3480156105ee57600080fd5b506105f7610f06565b6040518082815260200191505060405180910390f35b34801561061957600080fd5b506106466004803603602081101561063057600080fd5b8101908080359060200190929190505050610f0c565b60405180806020018373ffffffffffffffffffffffffffffffffffffffff1673ffffffffffffffffffffffffffffffffffffffff168152602001828103825284818151815260200191508051906020019080838360005b838110156106b857808201518184015260208101905061069d565b50505050905090810190601f1680156106e55780820380516001836020036101000a031916815260200191505b50935050505060405180910390f35b34801561070057600080fd5b5061072d6004803603602081101561071757600080fd5b8101908080359060200190929190505050610ff7565b005b600260009054906101000a900473ffffffffffffffffffffffffffffffffffffffff1673ffffffffffffffffffffffffffffffffffffffff163373ffffffffffffffffffffffffffffffffffffffff1614151561078b57600080fd5b600060018281548110151561079c57fe5b9060005260206000209060050201905060026005548115156107ba57fe5b0481600301541115156107cc57600080fd5b8060020160149054906101000a900460ff161515156107ea57600080fd5b8060020160009054906101000a900473ffffffffffffffffffffffffffffffffffffffff1673ffffffffffffffffffffffffffffffffffffffff166108fc82600101549081150290604051600060405180830381858888f19350505050158015610858573d6000803e3d6000fd5b5060018160020160146101000a81548160ff0219169083151502179055505050565b60046020528060005260406000206000915054906101000a900460ff1681565b600354341115156108aa57600080fd5b6001600460003373ffffffffffffffffffffffffffffffffffffffff1673ffffffffffffffffffffffffffffffffffffffff16815260200190815260200160002060006101000a81548160ff02191690831515021790555060056000815480929190600101919050555061091c61113d565b60408051908101604052808381526020013373ffffffffffffffffffffffffffffffffffffffff16815250905060008190806001815401808255809150509060018203906000526020600020906002020160009091929091909150600082015181600001908051906020019061099392919061116d565b5060208201518160010160006101000a81548173ffffffffffffffffffffffffffffffffffffffff021916908373ffffffffffffffffffffffffffffffffffffffff16021790555050505034600660003373ffffffffffffffffffffffffffffffffffffffff1673ffffffffffffffffffffffffffffffffffffffff1681526020019081526020016000205401600660003373ffffffffffffffffffffffffffffffffffffffff1673ffffffffffffffffffffffffffffffffffffffff168152602001908152602001600020819055505050565b6000600180549050905090565b60066020528060005260406000206000915090505481565b600260009054906101000a900473ffffffffffffffffffffffffffffffffffffffff1681565b60035434111515610ac257600080fd5b6001600460003373ffffffffffffffffffffffffffffffffffffffff1673ffffffffffffffffffffffffffffffffffffffff16815260200190815260200160002060006101000a81548160ff021916908315150217905550600560008154809291906001019190505550610b3461113d565b60408051908101604052808381526020013373ffffffffffffffffffffffffffffffffffffffff168152509050600081908060018154018082558091505090600182039060005260206000209060020201600090919290919091506000820151816000019080519060200190610bab92919061116d565b5060208201518160010160006101000a81548173ffffffffffffffffffffffffffffffffffffffff021916908373ffffffffffffffffffffffffffffffffffffffff16021790555050505034600660003373ffffffffffffffffffffffffffffffffffffffff1673ffffffffffffffffffffffffffffffffffffffff1681526020019081526020016000205401600660003373ffffffffffffffffffffffffffffffffffffffff1673ffffffffffffffffffffffffffffffffffffffff168152602001908152602001600020819055505050565b600181815481101515610c8e57fe5b9060005260206000209060050201600091509050806000018054600181600116156101000203166002900480601f016020809104026020016040519081016040528092919081815260200182805460018160011615610100020316600290048015610d3a5780601f10610d0f57610100808354040283529160200191610d3a565b820191906000526020600020905b815481529060010190602001808311610d1d57829003601f168201915b5050505050908060010154908060020160009054906101000a900473ffffffffffffffffffffffffffffffffffffffff16908060020160149054906101000a900460ff16908060030154905085565b60055481565b600260009054906101000a900473ffffffffffffffffffffffffffffffffffffffff1673ffffffffffffffffffffffffffffffffffffffff163373ffffffffffffffffffffffffffffffffffffffff16141515610deb57600080fd5b610df36111ed565b60a0604051908101604052808581526020018481526020018373ffffffffffffffffffffffffffffffffffffffff16815260200160001515815260200160008152509050600181908060018154018082558091505090600182039060005260206000209060050201600090919290919091506000820151816000019080519060200190610e8192919061116d565b506020820151816001015560408201518160020160006101000a81548173ffffffffffffffffffffffffffffffffffffffff021916908373ffffffffffffffffffffffffffffffffffffffff16021790555060608201518160020160146101000a81548160ff0219169083151502179055506080820151816003015550505050505050565b60035481565b600081815481101515610f1b57fe5b9060005260206000209060020201600091509050806000018054600181600116156101000203166002900480601f016020809104026020016040519081016040528092919081815260200182805460018160011615610100020316600290048015610fc75780601f10610f9c57610100808354040283529160200191610fc7565b820191906000526020600020905b815481529060010190602001808311610faa57829003601f168201915b5050505050908060010160009054906101000a900473ffffffffffffffffffffffffffffffffffffffff16905082565b600060018281548110151561100857fe5b90600052602060002090600502019050600460003373ffffffffffffffffffffffffffffffffffffffff1673ffffffffffffffffffffffffffffffffffffffff16815260200190815260200160002060009054906101000a900460ff16151561107057600080fd5b8060040160003373ffffffffffffffffffffffffffffffffffffffff1673ffffffffffffffffffffffffffffffffffffffff16815260200190815260200160002060009054906101000a900460ff161515156110cb57600080fd5b60018160040160003373ffffffffffffffffffffffffffffffffffffffff1673ffffffffffffffffffffffffffffffffffffffff16815260200190815260200160002060006101000a81548160ff02191690831515021790555080600301600081548092919060010191905055505050565b604080519081016040528060608152602001600073ffffffffffffffffffffffffffffffffffffffff1681525090565b828054600181600116156101000203166002900490600052602060002090601f016020900481019282601f106111ae57805160ff19168380011785556111dc565b828001600101855582156111dc579182015b828111156111db5782518255916020019190600101906111c0565b5b5090506111e99190611235565b5090565b60a0604051908101604052806060815260200160008152602001600073ffffffffffffffffffffffffffffffffffffffff168152602001600015158152602001600081525090565b61125791905b8082111561125357600081600090555060010161123b565b5090565b9056fea165627a7a723058204a97d4e5464bd013f441bfbf7f8ba037d66786fe43b03c8fd74d1092c08737560029",
  "source": "pragma solidity ^0.5.1;\r\n\r\ncontract Campaign {\r\n  \r\n  struct Request{\r\n      string description;\r\n      uint value;\r\n      address payable recipient;\r\n      bool complete;\r\n      uint approvalCount;\r\n      mapping(address=>bool)approvals;\r\n  }\r\n\r\nstruct Donators{\r\nstring name;\r\naddress donoraddress;\r\n}\r\n    Donators[] public donators;\r\n    Request[] public requests;\r\n    address public manager;\r\n    uint public minimumContribution;\r\n    mapping(address=>bool) public approvers;\r\n    uint public approversCount;\r\n    mapping(address=>uint256) public donoramount;\r\n\r\n\r\nmodifier restricted(){\r\n    require(msg.sender==manager);\r\n    _;\r\n}\r\n\r\n\r\nconstructor (uint a) public {\r\n    manager=msg.sender;\r\n    \r\n    minimumContribution=a;\r\n}\r\n\r\nfunction contribute(string memory name) public payable {\r\n \r\n    require (msg.value>minimumContribution);\r\n    approvers[msg.sender]=true;\r\n    approversCount++;\r\n       Donators memory newdonor=Donators({\r\n        name:name,\r\n        donoraddress:msg.sender\r\n    });\r\n    donators.push(newdonor);\r\n    donoramount[msg.sender]=donoramount[msg.sender]+msg.value;\r\n}\r\n\r\nfunction createRequest(string memory description,uint value,address payable recipient) public restricted{\r\n\r\nRequest memory newRequest=Request({\r\n\r\n    description:description,\r\n    value:value,\r\n    recipient:recipient,\r\n    complete:false,\r\n    approvalCount:0\r\n});\r\n\r\nrequests.push(newRequest);\r\n\r\n}\r\n\r\nfunction approveRequest(uint index) public{\r\n\r\n   Request storage request=requests[index];\r\n    require(approvers[msg.sender]);\r\n    require(!request.approvals[msg.sender]);\r\n\r\n    request.approvals[msg.sender]=true;\r\n    request.approvalCount++;\r\n}\r\n\r\nfunction finalizeRequest(uint index) public restricted{\r\n\r\n    Request storage request=requests[index];\r\n\r\n    require(request.approvalCount>(approversCount /2 ));\r\n    require(!request.complete);\r\n    request.recipient.transfer(request.value);\r\n    request.complete=true;\r\n}\r\n function getRequestsCount() public view returns (uint256){\r\n     return requests.length;\r\n }\r\n\r\n function contribute1(string memory name) public payable {\r\n \r\n    require (msg.value>minimumContribution);\r\n    approvers[msg.sender]=true;\r\n    approversCount++;\r\n       Donators memory newdonor=Donators({\r\n        name:name,\r\n        donoraddress:msg.sender\r\n    });\r\n    donators.push(newdonor);\r\n    donoramount[msg.sender]=donoramount[msg.sender]+msg.value;\r\n}\r\n\r\n}",
  "sourcePath": "C:\\Users\\aryan\\OneDrive\\Desktop\\New folder\\contracts\\campaign.sol",
  "compiler": {
    "name": "solc",
    "version": "0.5.1+commit.c8a2cb62.Emscripten.clang"
  },
  "schemaVersion": "3.4.5",
  "updatedAt": "2022-02-20T11:58:12.647Z",
  "networkType": "ethereum",
  "devdoc": {
    "methods": {}
  },
  "userdoc": {
    "methods": {}
  }
}