{
  "contractName": "Campaign",
  "abi": [
    {
      "constant": true,
      "inputs": [
        {
          "name": "",
          "type": "address"
        }
      ],
      "name": "approvers",
      "outputs": [
        {
          "name": "",
          "type": "bool"
        }
      ],
      "payable": false,
      "stateMutability": "view",
      "type": "function"
    },
    {
      "constant": true,
      "inputs": [
        {
          "name": "",
          "type": "address"
        }
      ],
      "name": "donoramount",
      "outputs": [
        {
          "name": "",
          "type": "uint256"
        }
      ],
      "payable": false,
      "stateMutability": "view",
      "type": "function"
    },
    {
      "constant": true,
      "inputs": [],
      "name": "manager",
      "outputs": [
        {
          "name": "",
          "type": "address"
        }
      ],
      "payable": false,
      "stateMutability": "view",
      "type": "function"
    },
    {
      "constant": true,
      "inputs": [
        {
          "name": "",
          "type": "uint256"
        }
      ],
      "name": "requests",
      "outputs": [
        {
          "name": "description",
          "type": "string"
        },
        {
          "name": "value",
          "type": "uint256"
        },
        {
          "name": "recipient",
          "type": "address"
        },
        {
          "name": "complete",
          "type": "bool"
        },
        {
          "name": "approvalCount",
          "type": "uint256"
        }
      ],
      "payable": false,
      "stateMutability": "view",
      "type": "function"
    },
    {
      "constant": true,
      "inputs": [],
      "name": "approversCount",
      "outputs": [
        {
          "name": "",
          "type": "uint256"
        }
      ],
      "payable": false,
      "stateMutability": "view",
      "type": "function"
    },
    {
      "constant": true,
      "inputs": [],
      "name": "minimumContribution",
      "outputs": [
        {
          "name": "",
          "type": "uint256"
        }
      ],
      "payable": false,
      "stateMutability": "view",
      "type": "function"
    },
    {
      "constant": true,
      "inputs": [
        {
          "name": "",
          "type": "uint256"
        }
      ],
      "name": "donators",
      "outputs": [
        {
          "name": "name",
          "type": "string"
        },
        {
          "name": "donoraddress",
          "type": "address"
        }
      ],
      "payable": false,
      "stateMutability": "view",
      "type": "function"
    },
    {
      "constant": true,
      "inputs": [
        {
          "name": "",
          "type": "address"
        }
      ],
      "name": "donorname",
      "outputs": [
        {
          "name": "",
          "type": "string"
        }
      ],
      "payable": false,
      "stateMutability": "view",
      "type": "function"
    },
    {
      "inputs": [
        {
          "name": "a",
          "type": "uint256"
        }
      ],
      "payable": false,
      "stateMutability": "nonpayable",
      "type": "constructor"
    },
    {
      "constant": false,
      "inputs": [
        {
          "name": "name",
          "type": "string"
        }
      ],
      "name": "contribute",
      "outputs": [],
      "payable": true,
      "stateMutability": "payable",
      "type": "function"
    },
    {
      "constant": false,
      "inputs": [
        {
          "name": "description",
          "type": "string"
        },
        {
          "name": "value",
          "type": "uint256"
        },
        {
          "name": "recipient",
          "type": "address"
        }
      ],
      "name": "createRequest",
      "outputs": [],
      "payable": false,
      "stateMutability": "nonpayable",
      "type": "function"
    },
    {
      "constant": false,
      "inputs": [
        {
          "name": "index",
          "type": "uint256"
        }
      ],
      "name": "approveRequest",
      "outputs": [],
      "payable": false,
      "stateMutability": "nonpayable",
      "type": "function"
    },
    {
      "constant": false,
      "inputs": [
        {
          "name": "index",
          "type": "uint256"
        }
      ],
      "name": "finalizeRequest",
      "outputs": [],
      "payable": false,
      "stateMutability": "nonpayable",
      "type": "function"
    },
    {
      "constant": true,
      "inputs": [],
      "name": "getRequestsCount",
      "outputs": [
        {
          "name": "",
          "type": "uint256"
        }
      ],
      "payable": false,
      "stateMutability": "view",
      "type": "function"
    },
    {
      "constant": true,
      "inputs": [],
      "name": "donatorsCount",
      "outputs": [
        {
          "name": "",
          "type": "uint256"
        }
      ],
      "payable": false,
      "stateMutability": "view",
      "type": "function"
    }
  ],
  "bytecode": "0x608060405234801561001057600080fd5b506040516020806113fa8339810180604052602081101561003057600080fd5b810190808051906020019092919050505033600260006101000a81548173ffffffffffffffffffffffffffffffffffffffff021916908373ffffffffffffffffffffffffffffffffffffffff1602179055508060038190555050611361806100996000396000f3fe6080604052600436106100ca576000357c01000000000000000000000000000000000000000000000000000000009004806303441006146100cf5780630a1443911461010a5780633410452a14610173578063443765611461019e578063481c6a75146102035780635c43217b1461025a57806372e871681461031557806381d12c581461034057806382fde093146104405780638a9cfd551461046b578063937e09b11461055d578063ac62f56614610588578063b022bf5e1461066f578063d7d1bbdb14610739575b600080fd5b3480156100db57600080fd5b50610108600480360360208110156100f257600080fd5b8101908080359060200190929190505050610774565b005b34801561011657600080fd5b506101596004803603602081101561012d57600080fd5b81019080803573ffffffffffffffffffffffffffffffffffffffff1690602001909291905050506108bf565b604051808215151515815260200191505060405180910390f35b34801561017f57600080fd5b506101886108df565b6040518082815260200191505060405180910390f35b3480156101aa57600080fd5b506101ed600480360360208110156101c157600080fd5b81019080803573ffffffffffffffffffffffffffffffffffffffff1690602001909291905050506108ec565b6040518082815260200191505060405180910390f35b34801561020f57600080fd5b50610218610904565b604051808273ffffffffffffffffffffffffffffffffffffffff1673ffffffffffffffffffffffffffffffffffffffff16815260200191505060405180910390f35b6103136004803603602081101561027057600080fd5b810190808035906020019064010000000081111561028d57600080fd5b82018360208201111561029f57600080fd5b803590602001918460018302840111640100000000831117156102c157600080fd5b91908080601f016020809104026020016040519081016040528093929190818152602001838380828437600081840152601f19601f82011690508083019250505050505050919291929050505061092a565b005b34801561032157600080fd5b5061032a610c1e565b6040518082815260200191505060405180910390f35b34801561034c57600080fd5b506103796004803603602081101561036357600080fd5b8101908080359060200190929190505050610c2a565b60405180806020018681526020018573ffffffffffffffffffffffffffffffffffffffff1673ffffffffffffffffffffffffffffffffffffffff16815260200184151515158152602001838152602001828103825287818151815260200191508051906020019080838360005b838110156104015780820151818401526020810190506103e6565b50505050905090810190601f16801561042e5780820380516001836020036101000a031916815260200191505b50965050505050505060405180910390f35b34801561044c57600080fd5b50610455610d34565b6040518082815260200191505060405180910390f35b34801561047757600080fd5b5061055b6004803603606081101561048e57600080fd5b81019080803590602001906401000000008111156104ab57600080fd5b8201836020820111156104bd57600080fd5b803590602001918460018302840111640100000000831117156104df57600080fd5b91908080601f016020809104026020016040519081016040528093929190818152602001838380828437600081840152601f19601f82011690508083019250505050505050919291929080359060200190929190803573ffffffffffffffffffffffffffffffffffffffff169060200190929190505050610d3a565b005b34801561056957600080fd5b50610572610eb1565b6040518082815260200191505060405180910390f35b34801561059457600080fd5b506105c1600480360360208110156105ab57600080fd5b8101908080359060200190929190505050610eb7565b60405180806020018373ffffffffffffffffffffffffffffffffffffffff1673ffffffffffffffffffffffffffffffffffffffff168152602001828103825284818151815260200191508051906020019080838360005b83811015610633578082015181840152602081019050610618565b50505050905090810190601f1680156106605780820380516001836020036101000a031916815260200191505b50935050505060405180910390f35b34801561067b57600080fd5b506106be6004803603602081101561069257600080fd5b81019080803573ffffffffffffffffffffffffffffffffffffffff169060200190929190505050610fa2565b6040518080602001828103825283818151815260200191508051906020019080838360005b838110156106fe5780820151818401526020810190506106e3565b50505050905090810190601f16801561072b5780820380516001836020036101000a031916815260200191505b509250505060405180910390f35b34801561074557600080fd5b506107726004803603602081101561075c57600080fd5b8101908080359060200190929190505050611052565b005b600260009054906101000a900473ffffffffffffffffffffffffffffffffffffffff1673ffffffffffffffffffffffffffffffffffffffff163373ffffffffffffffffffffffffffffffffffffffff161415156107d057600080fd5b60006001828154811015156107e157fe5b9060005260206000209060050201905060026005548115156107ff57fe5b04816003015411151561081157600080fd5b8060020160149054906101000a900460ff1615151561082f57600080fd5b8060020160009054906101000a900473ffffffffffffffffffffffffffffffffffffffff1673ffffffffffffffffffffffffffffffffffffffff166108fc82600101549081150290604051600060405180830381858888f1935050505015801561089d573d6000803e3d6000fd5b5060018160020160146101000a81548160ff0219169083151502179055505050565b60046020528060005260406000206000915054906101000a900460ff1681565b6000600180549050905090565b60066020528060005260406000206000915090505481565b600260009054906101000a900473ffffffffffffffffffffffffffffffffffffffff1681565b6003543411151561093a57600080fd5b6001600460003373ffffffffffffffffffffffffffffffffffffffff1673ffffffffffffffffffffffffffffffffffffffff16815260200190815260200160002060006101000a81548160ff0219169083151502179055506000600660003373ffffffffffffffffffffffffffffffffffffffff1673ffffffffffffffffffffffffffffffffffffffff168152602001908152602001600020541415610b95576109e2611198565b60408051908101604052808381526020013373ffffffffffffffffffffffffffffffffffffffff168152509050600081908060018154018082558091505090600182039060005260206000209060020201600090919290919091506000820151816000019080519060200190610a599291906111c8565b5060208201518160010160006101000a81548173ffffffffffffffffffffffffffffffffffffffff021916908373ffffffffffffffffffffffffffffffffffffffff16021790555050505081600760003373ffffffffffffffffffffffffffffffffffffffff1673ffffffffffffffffffffffffffffffffffffffff1681526020019081526020016000209080519060200190610af7929190611248565b5060056000815480929190600101919050555034600660003373ffffffffffffffffffffffffffffffffffffffff1673ffffffffffffffffffffffffffffffffffffffff1681526020019081526020016000205401600660003373ffffffffffffffffffffffffffffffffffffffff1673ffffffffffffffffffffffffffffffffffffffff1681526020019081526020016000208190555050610c1b565b34600660003373ffffffffffffffffffffffffffffffffffffffff1673ffffffffffffffffffffffffffffffffffffffff1681526020019081526020016000205401600660003373ffffffffffffffffffffffffffffffffffffffff1673ffffffffffffffffffffffffffffffffffffffff168152602001908152602001600020819055505b50565b60008080549050905090565b600181815481101515610c3957fe5b9060005260206000209060050201600091509050806000018054600181600116156101000203166002900480601f016020809104026020016040519081016040528092919081815260200182805460018160011615610100020316600290048015610ce55780601f10610cba57610100808354040283529160200191610ce5565b820191906000526020600020905b815481529060010190602001808311610cc857829003601f168201915b5050505050908060010154908060020160009054906101000a900473ffffffffffffffffffffffffffffffffffffffff16908060020160149054906101000a900460ff16908060030154905085565b60055481565b600260009054906101000a900473ffffffffffffffffffffffffffffffffffffffff1673ffffffffffffffffffffffffffffffffffffffff163373ffffffffffffffffffffffffffffffffffffffff16141515610d9657600080fd5b610d9e6112c8565b60a0604051908101604052808581526020018481526020018373ffffffffffffffffffffffffffffffffffffffff16815260200160001515815260200160008152509050600181908060018154018082558091505090600182039060005260206000209060050201600090919290919091506000820151816000019080519060200190610e2c9291906111c8565b506020820151816001015560408201518160020160006101000a81548173ffffffffffffffffffffffffffffffffffffffff021916908373ffffffffffffffffffffffffffffffffffffffff16021790555060608201518160020160146101000a81548160ff0219169083151502179055506080820151816003015550505050505050565b60035481565b600081815481101515610ec657fe5b9060005260206000209060020201600091509050806000018054600181600116156101000203166002900480601f016020809104026020016040519081016040528092919081815260200182805460018160011615610100020316600290048015610f725780601f10610f4757610100808354040283529160200191610f72565b820191906000526020600020905b815481529060010190602001808311610f5557829003601f168201915b5050505050908060010160009054906101000a900473ffffffffffffffffffffffffffffffffffffffff16905082565b60076020528060005260406000206000915090508054600181600116156101000203166002900480601f01602080910402602001604051908101604052809291908181526020018280546001816001161561010002031660029004801561104a5780601f1061101f5761010080835404028352916020019161104a565b820191906000526020600020905b81548152906001019060200180831161102d57829003601f168201915b505050505081565b600060018281548110151561106357fe5b90600052602060002090600502019050600460003373ffffffffffffffffffffffffffffffffffffffff1673ffffffffffffffffffffffffffffffffffffffff16815260200190815260200160002060009054906101000a900460ff1615156110cb57600080fd5b8060040160003373ffffffffffffffffffffffffffffffffffffffff1673ffffffffffffffffffffffffffffffffffffffff16815260200190815260200160002060009054906101000a900460ff1615151561112657600080fd5b60018160040160003373ffffffffffffffffffffffffffffffffffffffff1673ffffffffffffffffffffffffffffffffffffffff16815260200190815260200160002060006101000a81548160ff02191690831515021790555080600301600081548092919060010191905055505050565b604080519081016040528060608152602001600073ffffffffffffffffffffffffffffffffffffffff1681525090565b828054600181600116156101000203166002900490600052602060002090601f016020900481019282601f1061120957805160ff1916838001178555611237565b82800160010185558215611237579182015b8281111561123657825182559160200191906001019061121b565b5b5090506112449190611310565b5090565b828054600181600116156101000203166002900490600052602060002090601f016020900481019282601f1061128957805160ff19168380011785556112b7565b828001600101855582156112b7579182015b828111156112b657825182559160200191906001019061129b565b5b5090506112c49190611310565b5090565b60a0604051908101604052806060815260200160008152602001600073ffffffffffffffffffffffffffffffffffffffff168152602001600015158152602001600081525090565b61133291905b8082111561132e576000816000905550600101611316565b5090565b9056fea165627a7a72305820666b71bc83f641e8db2aee14bbe6c0f7f92f6726dd1fc7fb28f698753bc1bb5a0029",
  "source": "pragma solidity ^0.5.1;\r\n\r\ncontract Campaign {\r\n  \r\n  struct Request{\r\n      string description;\r\n      uint value;\r\n      address payable recipient;\r\n      bool complete;\r\n      uint approvalCount;\r\n      mapping(address=>bool)approvals;\r\n  }\r\n\r\nstruct Donators{\r\nstring name;\r\naddress donoraddress;\r\n}\r\n    Donators[] public donators;\r\n    Request[] public requests;\r\n    address public manager;\r\n    uint public minimumContribution;\r\n    mapping(address=>bool) public approvers;\r\n    uint public approversCount;\r\n    mapping(address=>uint256) public donoramount;\r\n    mapping(address=>string) public donorname;\r\n\r\nmodifier restricted(){\r\n    require(msg.sender==manager);\r\n    _;\r\n}\r\n\r\n\r\nconstructor (uint a) public {\r\n    manager=msg.sender;\r\n    \r\n    minimumContribution=a;\r\n}\r\n\r\nfunction contribute(string memory name) public payable {\r\n \r\n    require (msg.value>minimumContribution);\r\n    approvers[msg.sender]=true;\r\n   \r\n    if(donoramount[msg.sender]==0){\r\n       Donators memory newdonor=Donators({\r\n        name:name,\r\n        donoraddress:msg.sender\r\n    });\r\n    donators.push(newdonor);\r\n   donorname[msg.sender]=name;\r\n    approversCount++;\r\n    donoramount[msg.sender]=donoramount[msg.sender]+msg.value;\r\n    }\r\n    else\r\n    {\r\n       donoramount[msg.sender]=donoramount[msg.sender]+msg.value; \r\n    }\r\n}\r\n\r\nfunction createRequest(string memory description,uint value,address payable recipient) public restricted{\r\n\r\nRequest memory newRequest=Request({\r\n\r\n    description:description,\r\n    value:value,\r\n    recipient:recipient,\r\n    complete:false,\r\n    approvalCount:0\r\n});\r\n\r\nrequests.push(newRequest);\r\n\r\n}\r\n\r\nfunction approveRequest(uint index) public{\r\n\r\n   Request storage request=requests[index];\r\n    require(approvers[msg.sender]);\r\n    require(!request.approvals[msg.sender]);\r\n\r\n    request.approvals[msg.sender]=true;\r\n    request.approvalCount++;\r\n}\r\n\r\nfunction finalizeRequest(uint index) public restricted{\r\n\r\n    Request storage request=requests[index];\r\n\r\n    require(request.approvalCount>(approversCount /2 ));\r\n    require(!request.complete);\r\n    request.recipient.transfer(request.value);\r\n    request.complete=true;\r\n}\r\n function getRequestsCount() public view returns (uint256){\r\n     return requests.length;\r\n }\r\n  function donatorsCount() public view returns (uint256){\r\n     return donators.length;\r\n }\r\n\r\n}",
  "sourcePath": "C:\\Users\\aryan\\OneDrive\\Desktop\\New folder\\contracts\\campaign.sol",
  "compiler": {
    "name": "solc",
    "version": "0.5.1+commit.c8a2cb62.Emscripten.clang"
  },
  "schemaVersion": "3.4.5",
  "updatedAt": "2022-02-23T05:52:49.955Z",
  "networkType": "ethereum",
  "devdoc": {
    "methods": {}
  },
  "userdoc": {
    "methods": {}
  }
}